{"abi":[{"type":"constructor","inputs":[{"name":"tokenName","type":"string","internalType":"string"},{"name":"tokenSymbol","type":"string","internalType":"string"}],"stateMutability":"nonpayable"},{"type":"function","name":"approve","inputs":[{"name":"to","type":"address","internalType":"address"},{"name":"tokenId","type":"uint256","internalType":"uint256"}],"outputs":[],"stateMutability":"nonpayable"},{"type":"function","name":"balanceOf","inputs":[{"name":"owner","type":"address","internalType":"address"}],"outputs":[{"name":"","type":"uint256","internalType":"uint256"}],"stateMutability":"view"},{"type":"function","name":"getApproved","inputs":[{"name":"tokenId","type":"uint256","internalType":"uint256"}],"outputs":[{"name":"","type":"address","internalType":"address"}],"stateMutability":"view"},{"type":"function","name":"isApprovedForAll","inputs":[{"name":"owner","type":"address","internalType":"address"},{"name":"operator","type":"address","internalType":"address"}],"outputs":[{"name":"","type":"bool","internalType":"bool"}],"stateMutability":"view"},{"type":"function","name":"metaDataURI_","inputs":[],"outputs":[{"name":"","type":"string","internalType":"string"}],"stateMutability":"view"},{"type":"function","name":"mint","inputs":[{"name":"to","type":"address","internalType":"address"}],"outputs":[],"stateMutability":"nonpayable"},{"type":"function","name":"name","inputs":[],"outputs":[{"name":"","type":"string","internalType":"string"}],"stateMutability":"view"},{"type":"function","name":"owner","inputs":[],"outputs":[{"name":"","type":"address","internalType":"address"}],"stateMutability":"view"},{"type":"function","name":"ownerOf","inputs":[{"name":"tokenId","type":"uint256","internalType":"uint256"}],"outputs":[{"name":"","type":"address","internalType":"address"}],"stateMutability":"view"},{"type":"function","name":"renounceOwnership","inputs":[],"outputs":[],"stateMutability":"nonpayable"},{"type":"function","name":"safeTransferFrom","inputs":[{"name":"from","type":"address","internalType":"address"},{"name":"to","type":"address","internalType":"address"},{"name":"tokenId","type":"uint256","internalType":"uint256"}],"outputs":[],"stateMutability":"nonpayable"},{"type":"function","name":"safeTransferFrom","inputs":[{"name":"from","type":"address","internalType":"address"},{"name":"to","type":"address","internalType":"address"},{"name":"tokenId","type":"uint256","internalType":"uint256"},{"name":"data","type":"bytes","internalType":"bytes"}],"outputs":[],"stateMutability":"nonpayable"},{"type":"function","name":"setApprovalForAll","inputs":[{"name":"operator","type":"address","internalType":"address"},{"name":"approved","type":"bool","internalType":"bool"}],"outputs":[],"stateMutability":"nonpayable"},{"type":"function","name":"supportsInterface","inputs":[{"name":"interfaceId","type":"bytes4","internalType":"bytes4"}],"outputs":[{"name":"","type":"bool","internalType":"bool"}],"stateMutability":"view"},{"type":"function","name":"symbol","inputs":[],"outputs":[{"name":"","type":"string","internalType":"string"}],"stateMutability":"view"},{"type":"function","name":"tokenURI","inputs":[{"name":"tokenId","type":"uint256","internalType":"uint256"}],"outputs":[{"name":"","type":"string","internalType":"string"}],"stateMutability":"view"},{"type":"function","name":"transferFrom","inputs":[{"name":"from","type":"address","internalType":"address"},{"name":"to","type":"address","internalType":"address"},{"name":"tokenId","type":"uint256","internalType":"uint256"}],"outputs":[],"stateMutability":"nonpayable"},{"type":"function","name":"transferOwnership","inputs":[{"name":"newOwner","type":"address","internalType":"address"}],"outputs":[],"stateMutability":"nonpayable"},{"type":"event","name":"Approval","inputs":[{"name":"owner","type":"address","indexed":true,"internalType":"address"},{"name":"approved","type":"address","indexed":true,"internalType":"address"},{"name":"tokenId","type":"uint256","indexed":true,"internalType":"uint256"}],"anonymous":false},{"type":"event","name":"ApprovalForAll","inputs":[{"name":"owner","type":"address","indexed":true,"internalType":"address"},{"name":"operator","type":"address","indexed":true,"internalType":"address"},{"name":"approved","type":"bool","indexed":false,"internalType":"bool"}],"anonymous":false},{"type":"event","name":"BatchMetadataUpdate","inputs":[{"name":"_fromTokenId","type":"uint256","indexed":false,"internalType":"uint256"},{"name":"_toTokenId","type":"uint256","indexed":false,"internalType":"uint256"}],"anonymous":false},{"type":"event","name":"MetadataUpdate","inputs":[{"name":"_tokenId","type":"uint256","indexed":false,"internalType":"uint256"}],"anonymous":false},{"type":"event","name":"OwnershipTransferred","inputs":[{"name":"previousOwner","type":"address","indexed":true,"internalType":"address"},{"name":"newOwner","type":"address","indexed":true,"internalType":"address"}],"anonymous":false},{"type":"event","name":"Transfer","inputs":[{"name":"from","type":"address","indexed":true,"internalType":"address"},{"name":"to","type":"address","indexed":true,"internalType":"address"},{"name":"tokenId","type":"uint256","indexed":true,"internalType":"uint256"}],"anonymous":false},{"type":"error","name":"ERC721IncorrectOwner","inputs":[{"name":"sender","type":"address","internalType":"address"},{"name":"tokenId","type":"uint256","internalType":"uint256"},{"name":"owner","type":"address","internalType":"address"}]},{"type":"error","name":"ERC721InsufficientApproval","inputs":[{"name":"operator","type":"address","internalType":"address"},{"name":"tokenId","type":"uint256","internalType":"uint256"}]},{"type":"error","name":"ERC721InvalidApprover","inputs":[{"name":"approver","type":"address","internalType":"address"}]},{"type":"error","name":"ERC721InvalidOperator","inputs":[{"name":"operator","type":"address","internalType":"address"}]},{"type":"error","name":"ERC721InvalidOwner","inputs":[{"name":"owner","type":"address","internalType":"address"}]},{"type":"error","name":"ERC721InvalidReceiver","inputs":[{"name":"receiver","type":"address","internalType":"address"}]},{"type":"error","name":"ERC721InvalidSender","inputs":[{"name":"sender","type":"address","internalType":"address"}]},{"type":"error","name":"ERC721NonexistentToken","inputs":[{"name":"tokenId","type":"uint256","internalType":"uint256"}]},{"type":"error","name":"OwnableInvalidOwner","inputs":[{"name":"owner","type":"address","internalType":"address"}]},{"type":"error","name":"OwnableUnauthorizedAccount","inputs":[{"name":"account","type":"address","internalType":"address"}]}],"bytecode":{"object":"0x6080604052604051806060016040528060358152602001612c91603591396009908161002b919061040b565b50348015610037575f5ffd5b50604051612cc6380380612cc6833981810160405281019061005991906105fa565b338282815f908161006a919061040b565b50806001908161007a919061040b565b5050505f73ffffffffffffffffffffffffffffffffffffffff168173ffffffffffffffffffffffffffffffffffffffff16036100ed575f6040517f1e4fbdf70000000000000000000000000000000000000000000000000000000081526004016100e491906106af565b60405180910390fd5b6100fc8161010b60201b60201c565b505f60088190555050506106c8565b5f60075f9054906101000a900473ffffffffffffffffffffffffffffffffffffffff1690508160075f6101000a81548173ffffffffffffffffffffffffffffffffffffffff021916908373ffffffffffffffffffffffffffffffffffffffff1602179055508173ffffffffffffffffffffffffffffffffffffffff168173ffffffffffffffffffffffffffffffffffffffff167f8be0079c531659141344cd1fd0a4f28419497f9722a3daafe3b4186f6b6457e060405160405180910390a35050565b5f81519050919050565b7f4e487b71000000000000000000000000000000000000000000000000000000005f52604160045260245ffd5b7f4e487b71000000000000000000000000000000000000000000000000000000005f52602260045260245ffd5b5f600282049050600182168061024957607f821691505b60208210810361025c5761025b610205565b5b50919050565b5f819050815f5260205f209050919050565b5f6020601f8301049050919050565b5f82821b905092915050565b5f600883026102be7fffffffffffffffffffffffffffffffffffffffffffffffffffffffffffffffff82610283565b6102c88683610283565b95508019841693508086168417925050509392505050565b5f819050919050565b5f819050919050565b5f61030c610307610302846102e0565b6102e9565b6102e0565b9050919050565b5f819050919050565b610325836102f2565b61033961033182610313565b84845461028f565b825550505050565b5f5f905090565b610350610341565b61035b81848461031c565b505050565b5b8181101561037e576103735f82610348565b600181019050610361565b5050565b601f8211156103c35761039481610262565b61039d84610274565b810160208510156103ac578190505b6103c06103b885610274565b830182610360565b50505b505050565b5f82821c905092915050565b5f6103e35f19846008026103c8565b1980831691505092915050565b5f6103fb83836103d4565b9150826002028217905092915050565b610414826101ce565b67ffffffffffffffff81111561042d5761042c6101d8565b5b6104378254610232565b610442828285610382565b5f60209050601f831160018114610473575f8415610461578287015190505b61046b85826103f0565b8655506104d2565b601f19841661048186610262565b5f5b828110156104a857848901518255600182019150602085019450602081019050610483565b868310156104c557848901516104c1601f8916826103d4565b8355505b6001600288020188555050505b505050505050565b5f604051905090565b5f5ffd5b5f5ffd5b5f5ffd5b5f5ffd5b5f601f19601f8301169050919050565b61050c826104f3565b810181811067ffffffffffffffff8211171561052b5761052a6101d8565b5b80604052505050565b5f61053d6104da565b90506105498282610503565b919050565b5f67ffffffffffffffff821115610568576105676101d8565b5b610571826104f3565b9050602081019050919050565b8281835e5f83830152505050565b5f61059e6105998461054e565b610534565b9050828152602081018484840111156105ba576105b96104ef565b5b6105c584828561057e565b509392505050565b5f82601f8301126105e1576105e06104eb565b5b81516105f184826020860161058c565b91505092915050565b5f5f604083850312156106105761060f6104e3565b5b5f83015167ffffffffffffffff81111561062d5761062c6104e7565b5b610639858286016105cd565b925050602083015167ffffffffffffffff81111561065a576106596104e7565b5b610666858286016105cd565b9150509250929050565b5f73ffffffffffffffffffffffffffffffffffffffff82169050919050565b5f61069982610670565b9050919050565b6106a98161068f565b82525050565b5f6020820190506106c25f8301846106a0565b92915050565b6125bc806106d55f395ff3fe608060405234801561000f575f5ffd5b5060043610610114575f3560e01c8063715018a6116100a0578063af712a3b1161006f578063af712a3b146102c8578063b88d4fde146102e6578063c87b56dd14610302578063e985e9c514610332578063f2fde38b1461036257610114565b8063715018a6146102665780638da5cb5b1461027057806395d89b411461028e578063a22cb465146102ac57610114565b806323b872dd116100e757806323b872dd146101b257806342842e0e146101ce5780636352211e146101ea5780636a6278421461021a57806370a082311461023657610114565b806301ffc9a71461011857806306fdde0314610148578063081812fc14610166578063095ea7b314610196575b5f5ffd5b610132600480360381019061012d9190611b84565b61037e565b60405161013f9190611bc9565b60405180910390f35b6101506103de565b60405161015d9190611c52565b60405180910390f35b610180600480360381019061017b9190611ca5565b61046d565b60405161018d9190611d0f565b60405180910390f35b6101b060048036038101906101ab9190611d52565b610488565b005b6101cc60048036038101906101c79190611d90565b61049e565b005b6101e860048036038101906101e39190611d90565b61059d565b005b61020460048036038101906101ff9190611ca5565b6105bc565b6040516102119190611d0f565b60405180910390f35b610234600480360381019061022f9190611de0565b6105cd565b005b610250600480360381019061024b9190611de0565b61068e565b60405161025d9190611e1a565b60405180910390f35b61026e610744565b005b610278610757565b6040516102859190611d0f565b60405180910390f35b61029661077f565b6040516102a39190611c52565b60405180910390f35b6102c660048036038101906102c19190611e5d565b61080f565b005b6102d0610825565b6040516102dd9190611c52565b60405180910390f35b61030060048036038101906102fb9190611fc7565b6108b1565b005b61031c60048036038101906103179190611ca5565b6108d6565b6040516103299190611c52565b60405180910390f35b61034c60048036038101906103479190612047565b6109e1565b6040516103599190611bc9565b60405180910390f35b61037c60048036038101906103779190611de0565b610a6f565b005b5f634906490660e01b7bffffffffffffffffffffffffffffffffffffffffffffffffffffffff1916827bffffffffffffffffffffffffffffffffffffffffffffffffffffffff191614806103d757506103d682610af3565b5b9050919050565b60605f80546103ec906120b2565b80601f0160208091040260200160405190810160405280929190818152602001828054610418906120b2565b80156104635780601f1061043a57610100808354040283529160200191610463565b820191905f5260205f20905b81548152906001019060200180831161044657829003601f168201915b5050505050905090565b5f61047782610bd4565b5061048182610c5a565b9050919050565b61049a8282610495610c93565b610c9a565b5050565b5f73ffffffffffffffffffffffffffffffffffffffff168273ffffffffffffffffffffffffffffffffffffffff160361050e575f6040517f64a0ae920000000000000000000000000000000000000000000000000000000081526004016105059190611d0f565b60405180910390fd5b5f610521838361051c610c93565b610cac565b90508373ffffffffffffffffffffffffffffffffffffffff168173ffffffffffffffffffffffffffffffffffffffff1614610597578382826040517f64283d7b00000000000000000000000000000000000000000000000000000000815260040161058e939291906120e2565b60405180910390fd5b50505050565b6105b783838360405180602001604052805f8152506108b1565b505050565b5f6105c682610bd4565b9050919050565b6105d5610eb7565b5f60085f8154809291906105e890612144565b9190505590506105f88282610f3e565b61068a8160098054610609906120b2565b80601f0160208091040260200160405190810160405280929190818152602001828054610635906120b2565b80156106805780601f1061065757610100808354040283529160200191610680565b820191905f5260205f20905b81548152906001019060200180831161066357829003601f168201915b5050505050610f5b565b5050565b5f5f73ffffffffffffffffffffffffffffffffffffffff168273ffffffffffffffffffffffffffffffffffffffff16036106ff575f6040517f89c62b640000000000000000000000000000000000000000000000000000000081526004016106f69190611d0f565b60405180910390fd5b60035f8373ffffffffffffffffffffffffffffffffffffffff1673ffffffffffffffffffffffffffffffffffffffff1681526020019081526020015f20549050919050565b61074c610eb7565b6107555f610fb5565b565b5f60075f9054906101000a900473ffffffffffffffffffffffffffffffffffffffff16905090565b60606001805461078e906120b2565b80601f01602080910402602001604051908101604052809291908181526020018280546107ba906120b2565b80156108055780601f106107dc57610100808354040283529160200191610805565b820191905f5260205f20905b8154815290600101906020018083116107e857829003601f168201915b5050505050905090565b61082161081a610c93565b8383611078565b5050565b60098054610832906120b2565b80601f016020809104026020016040519081016040528092919081815260200182805461085e906120b2565b80156108a95780601f10610880576101008083540402835291602001916108a9565b820191905f5260205f20905b81548152906001019060200180831161088c57829003601f168201915b505050505081565b6108bc84848461049e565b6108d06108c7610c93565b858585856111e1565b50505050565b60606108e182610bd4565b505f60065f8481526020019081526020015f2080546108ff906120b2565b80601f016020809104026020016040519081016040528092919081815260200182805461092b906120b2565b80156109765780601f1061094d57610100808354040283529160200191610976565b820191905f5260205f20905b81548152906001019060200180831161095957829003601f168201915b505050505090505f61098661138d565b90505f81510361099a5781925050506109dc565b5f825111156109ce5780826040516020016109b69291906121c5565b604051602081830303815290604052925050506109dc565b6109d7846113a3565b925050505b919050565b5f60055f8473ffffffffffffffffffffffffffffffffffffffff1673ffffffffffffffffffffffffffffffffffffffff1681526020019081526020015f205f8373ffffffffffffffffffffffffffffffffffffffff1673ffffffffffffffffffffffffffffffffffffffff1681526020019081526020015f205f9054906101000a900460ff16905092915050565b610a77610eb7565b5f73ffffffffffffffffffffffffffffffffffffffff168173ffffffffffffffffffffffffffffffffffffffff1603610ae7575f6040517f1e4fbdf7000000000000000000000000000000000000000000000000000000008152600401610ade9190611d0f565b60405180910390fd5b610af081610fb5565b50565b5f7f80ac58cd000000000000000000000000000000000000000000000000000000007bffffffffffffffffffffffffffffffffffffffffffffffffffffffff1916827bffffffffffffffffffffffffffffffffffffffffffffffffffffffff19161480610bbd57507f5b5e139f000000000000000000000000000000000000000000000000000000007bffffffffffffffffffffffffffffffffffffffffffffffffffffffff1916827bffffffffffffffffffffffffffffffffffffffffffffffffffffffff1916145b80610bcd5750610bcc82611409565b5b9050919050565b5f5f610bdf83611472565b90505f73ffffffffffffffffffffffffffffffffffffffff168173ffffffffffffffffffffffffffffffffffffffff1603610c5157826040517f7e273289000000000000000000000000000000000000000000000000000000008152600401610c489190611e1a565b60405180910390fd5b80915050919050565b5f60045f8381526020019081526020015f205f9054906101000a900473ffffffffffffffffffffffffffffffffffffffff169050919050565b5f33905090565b610ca783838360016114ab565b505050565b5f5f610cb784611472565b90505f73ffffffffffffffffffffffffffffffffffffffff168373ffffffffffffffffffffffffffffffffffffffff1614610cf857610cf781848661166a565b5b5f73ffffffffffffffffffffffffffffffffffffffff168173ffffffffffffffffffffffffffffffffffffffff1614610d8357610d375f855f5f6114ab565b600160035f8373ffffffffffffffffffffffffffffffffffffffff1673ffffffffffffffffffffffffffffffffffffffff1681526020019081526020015f205f82825403925050819055505b5f73ffffffffffffffffffffffffffffffffffffffff168573ffffffffffffffffffffffffffffffffffffffff1614610e0257600160035f8773ffffffffffffffffffffffffffffffffffffffff1673ffffffffffffffffffffffffffffffffffffffff1681526020019081526020015f205f82825401925050819055505b8460025f8681526020019081526020015f205f6101000a81548173ffffffffffffffffffffffffffffffffffffffff021916908373ffffffffffffffffffffffffffffffffffffffff160217905550838573ffffffffffffffffffffffffffffffffffffffff168273ffffffffffffffffffffffffffffffffffffffff167fddf252ad1be2c89b69c2b068fc378daa952ba7f163c4a11628f55a4df523b3ef60405160405180910390a4809150509392505050565b610ebf610c93565b73ffffffffffffffffffffffffffffffffffffffff16610edd610757565b73ffffffffffffffffffffffffffffffffffffffff1614610f3c57610f00610c93565b6040517f118cdaa7000000000000000000000000000000000000000000000000000000008152600401610f339190611d0f565b60405180910390fd5b565b610f57828260405180602001604052805f81525061172d565b5050565b8060065f8481526020019081526020015f209081610f799190612388565b507ff8e1a15aba9398e019f0b49df1a4fde98ee17ae345cb5f6b5e2c27f5033e8ce782604051610fa99190611e1a565b60405180910390a15050565b5f60075f9054906101000a900473ffffffffffffffffffffffffffffffffffffffff1690508160075f6101000a81548173ffffffffffffffffffffffffffffffffffffffff021916908373ffffffffffffffffffffffffffffffffffffffff1602179055508173ffffffffffffffffffffffffffffffffffffffff168173ffffffffffffffffffffffffffffffffffffffff167f8be0079c531659141344cd1fd0a4f28419497f9722a3daafe3b4186f6b6457e060405160405180910390a35050565b5f73ffffffffffffffffffffffffffffffffffffffff168273ffffffffffffffffffffffffffffffffffffffff16036110e857816040517f5b08ba180000000000000000000000000000000000000000000000000000000081526004016110df9190611d0f565b60405180910390fd5b8060055f8573ffffffffffffffffffffffffffffffffffffffff1673ffffffffffffffffffffffffffffffffffffffff1681526020019081526020015f205f8473ffffffffffffffffffffffffffffffffffffffff1673ffffffffffffffffffffffffffffffffffffffff1681526020019081526020015f205f6101000a81548160ff0219169083151502179055508173ffffffffffffffffffffffffffffffffffffffff168373ffffffffffffffffffffffffffffffffffffffff167f17307eab39ab6107e8899845ad3d59bd9653f200f220920489ca2b5937696c31836040516111d49190611bc9565b60405180910390a3505050565b5f8373ffffffffffffffffffffffffffffffffffffffff163b1115611386578273ffffffffffffffffffffffffffffffffffffffff1663150b7a02868685856040518563ffffffff1660e01b815260040161123f94939291906124a9565b6020604051808303815f875af192505050801561127a57506040513d601f19601f820116820180604052508101906112779190612507565b60015b6112fb573d805f81146112a8576040519150601f19603f3d011682016040523d82523d5f602084013e6112ad565b606091505b505f8151036112f357836040517f64a0ae920000000000000000000000000000000000000000000000000000000081526004016112ea9190611d0f565b60405180910390fd5b805160208201fd5b63150b7a0260e01b7bffffffffffffffffffffffffffffffffffffffffffffffffffffffff1916817bffffffffffffffffffffffffffffffffffffffffffffffffffffffff19161461138457836040517f64a0ae9200000000000000000000000000000000000000000000000000000000815260040161137b9190611d0f565b60405180910390fd5b505b5050505050565b606060405180602001604052805f815250905090565b60606113ae82610bd4565b505f6113b861138d565b90505f8151116113d65760405180602001604052805f815250611401565b806113e084611750565b6040516020016113f19291906121c5565b6040516020818303038152906040525b915050919050565b5f7f01ffc9a7000000000000000000000000000000000000000000000000000000007bffffffffffffffffffffffffffffffffffffffffffffffffffffffff1916827bffffffffffffffffffffffffffffffffffffffffffffffffffffffff1916149050919050565b5f60025f8381526020019081526020015f205f9054906101000a900473ffffffffffffffffffffffffffffffffffffffff169050919050565b80806114e357505f73ffffffffffffffffffffffffffffffffffffffff168273ffffffffffffffffffffffffffffffffffffffff1614155b15611615575f6114f284610bd4565b90505f73ffffffffffffffffffffffffffffffffffffffff168373ffffffffffffffffffffffffffffffffffffffff161415801561155c57508273ffffffffffffffffffffffffffffffffffffffff168173ffffffffffffffffffffffffffffffffffffffff1614155b801561156f575061156d81846109e1565b155b156115b157826040517fa9fbf51f0000000000000000000000000000000000000000000000000000000081526004016115a89190611d0f565b60405180910390fd5b811561161357838573ffffffffffffffffffffffffffffffffffffffff168273ffffffffffffffffffffffffffffffffffffffff167f8c5be1e5ebec7d5bd14f71427d1e84f3dd0314c0f7b2291e5b200ac8c7c3b92560405160405180910390a45b505b8360045f8581526020019081526020015f205f6101000a81548173ffffffffffffffffffffffffffffffffffffffff021916908373ffffffffffffffffffffffffffffffffffffffff16021790555050505050565b61167583838361181a565b611728575f73ffffffffffffffffffffffffffffffffffffffff168373ffffffffffffffffffffffffffffffffffffffff16036116e957806040517f7e2732890000000000000000000000000000000000000000000000000000000081526004016116e09190611e1a565b60405180910390fd5b81816040517f177e802f00000000000000000000000000000000000000000000000000000000815260040161171f929190612532565b60405180910390fd5b505050565b61173783836118da565b61174b611742610c93565b5f8585856111e1565b505050565b60605f600161175e846119cd565b0190505f8167ffffffffffffffff81111561177c5761177b611ea3565b5b6040519080825280601f01601f1916602001820160405280156117ae5781602001600182028036833780820191505090505b5090505f82602083010190505b60011561180f578080600190039150507f3031323334353637383961626364656600000000000000000000000000000000600a86061a8153600a858161180457611803612559565b5b0494505f85036117bb575b819350505050919050565b5f5f73ffffffffffffffffffffffffffffffffffffffff168373ffffffffffffffffffffffffffffffffffffffff16141580156118d157508273ffffffffffffffffffffffffffffffffffffffff168473ffffffffffffffffffffffffffffffffffffffff161480611892575061189184846109e1565b5b806118d057508273ffffffffffffffffffffffffffffffffffffffff166118b883610c5a565b73ffffffffffffffffffffffffffffffffffffffff16145b5b90509392505050565b5f73ffffffffffffffffffffffffffffffffffffffff168273ffffffffffffffffffffffffffffffffffffffff160361194a575f6040517f64a0ae920000000000000000000000000000000000000000000000000000000081526004016119419190611d0f565b60405180910390fd5b5f61195683835f610cac565b90505f73ffffffffffffffffffffffffffffffffffffffff168173ffffffffffffffffffffffffffffffffffffffff16146119c8575f6040517f73c6ac6e0000000000000000000000000000000000000000000000000000000081526004016119bf9190611d0f565b60405180910390fd5b505050565b5f5f5f90507a184f03e93ff9f4daa797ed6e38ed64bf6a1f0100000000000000008310611a29577a184f03e93ff9f4daa797ed6e38ed64bf6a1f0100000000000000008381611a1f57611a1e612559565b5b0492506040810190505b6d04ee2d6d415b85acef81000000008310611a66576d04ee2d6d415b85acef81000000008381611a5c57611a5b612559565b5b0492506020810190505b662386f26fc100008310611a9557662386f26fc100008381611a8b57611a8a612559565b5b0492506010810190505b6305f5e1008310611abe576305f5e1008381611ab457611ab3612559565b5b0492506008810190505b6127108310611ae3576127108381611ad957611ad8612559565b5b0492506004810190505b60648310611b065760648381611afc57611afb612559565b5b0492506002810190505b600a8310611b15576001810190505b80915050919050565b5f604051905090565b5f5ffd5b5f5ffd5b5f7fffffffff0000000000000000000000000000000000000000000000000000000082169050919050565b611b6381611b2f565b8114611b6d575f5ffd5b50565b5f81359050611b7e81611b5a565b92915050565b5f60208284031215611b9957611b98611b27565b5b5f611ba684828501611b70565b91505092915050565b5f8115159050919050565b611bc381611baf565b82525050565b5f602082019050611bdc5f830184611bba565b92915050565b5f81519050919050565b5f82825260208201905092915050565b8281835e5f83830152505050565b5f601f19601f8301169050919050565b5f611c2482611be2565b611c2e8185611bec565b9350611c3e818560208601611bfc565b611c4781611c0a565b840191505092915050565b5f6020820190508181035f830152611c6a8184611c1a565b905092915050565b5f819050919050565b611c8481611c72565b8114611c8e575f5ffd5b50565b5f81359050611c9f81611c7b565b92915050565b5f60208284031215611cba57611cb9611b27565b5b5f611cc784828501611c91565b91505092915050565b5f73ffffffffffffffffffffffffffffffffffffffff82169050919050565b5f611cf982611cd0565b9050919050565b611d0981611cef565b82525050565b5f602082019050611d225f830184611d00565b92915050565b611d3181611cef565b8114611d3b575f5ffd5b50565b5f81359050611d4c81611d28565b92915050565b5f5f60408385031215611d6857611d67611b27565b5b5f611d7585828601611d3e565b9250506020611d8685828601611c91565b9150509250929050565b5f5f5f60608486031215611da757611da6611b27565b5b5f611db486828701611d3e565b9350506020611dc586828701611d3e565b9250506040611dd686828701611c91565b9150509250925092565b5f60208284031215611df557611df4611b27565b5b5f611e0284828501611d3e565b91505092915050565b611e1481611c72565b82525050565b5f602082019050611e2d5f830184611e0b565b92915050565b611e3c81611baf565b8114611e46575f5ffd5b50565b5f81359050611e5781611e33565b92915050565b5f5f60408385031215611e7357611e72611b27565b5b5f611e8085828601611d3e565b9250506020611e9185828601611e49565b9150509250929050565b5f5ffd5b5f5ffd5b7f4e487b71000000000000000000000000000000000000000000000000000000005f52604160045260245ffd5b611ed982611c0a565b810181811067ffffffffffffffff82111715611ef857611ef7611ea3565b5b80604052505050565b5f611f0a611b1e565b9050611f168282611ed0565b919050565b5f67ffffffffffffffff821115611f3557611f34611ea3565b5b611f3e82611c0a565b9050602081019050919050565b828183375f83830152505050565b5f611f6b611f6684611f1b565b611f01565b905082815260208101848484011115611f8757611f86611e9f565b5b611f92848285611f4b565b509392505050565b5f82601f830112611fae57611fad611e9b565b5b8135611fbe848260208601611f59565b91505092915050565b5f5f5f5f60808587031215611fdf57611fde611b27565b5b5f611fec87828801611d3e565b9450506020611ffd87828801611d3e565b935050604061200e87828801611c91565b925050606085013567ffffffffffffffff81111561202f5761202e611b2b565b5b61203b87828801611f9a565b91505092959194509250565b5f5f6040838503121561205d5761205c611b27565b5b5f61206a85828601611d3e565b925050602061207b85828601611d3e565b9150509250929050565b7f4e487b71000000000000000000000000000000000000000000000000000000005f52602260045260245ffd5b5f60028204905060018216806120c957607f821691505b6020821081036120dc576120db612085565b5b50919050565b5f6060820190506120f55f830186611d00565b6121026020830185611e0b565b61210f6040830184611d00565b949350505050565b7f4e487b71000000000000000000000000000000000000000000000000000000005f52601160045260245ffd5b5f61214e82611c72565b91507fffffffffffffffffffffffffffffffffffffffffffffffffffffffffffffffff82036121805761217f612117565b5b600182019050919050565b5f81905092915050565b5f61219f82611be2565b6121a9818561218b565b93506121b9818560208601611bfc565b80840191505092915050565b5f6121d08285612195565b91506121dc8284612195565b91508190509392505050565b5f819050815f5260205f209050919050565b5f6020601f8301049050919050565b5f82821b905092915050565b5f600883026122447fffffffffffffffffffffffffffffffffffffffffffffffffffffffffffffffff82612209565b61224e8683612209565b95508019841693508086168417925050509392505050565b5f819050919050565b5f61228961228461227f84611c72565b612266565b611c72565b9050919050565b5f819050919050565b6122a28361226f565b6122b66122ae82612290565b848454612215565b825550505050565b5f5f905090565b6122cd6122be565b6122d8818484612299565b505050565b5b818110156122fb576122f05f826122c5565b6001810190506122de565b5050565b601f82111561234057612311816121e8565b61231a846121fa565b81016020851015612329578190505b61233d612335856121fa565b8301826122dd565b50505b505050565b5f82821c905092915050565b5f6123605f1984600802612345565b1980831691505092915050565b5f6123788383612351565b9150826002028217905092915050565b61239182611be2565b67ffffffffffffffff8111156123aa576123a9611ea3565b5b6123b482546120b2565b6123bf8282856122ff565b5f60209050601f8311600181146123f0575f84156123de578287015190505b6123e8858261236d565b86555061244f565b601f1984166123fe866121e8565b5f5b8281101561242557848901518255600182019150602085019450602081019050612400565b86831015612442578489015161243e601f891682612351565b8355505b6001600288020188555050505b505050505050565b5f81519050919050565b5f82825260208201905092915050565b5f61247b82612457565b6124858185612461565b9350612495818560208601611bfc565b61249e81611c0a565b840191505092915050565b5f6080820190506124bc5f830187611d00565b6124c96020830186611d00565b6124d66040830185611e0b565b81810360608301526124e88184612471565b905095945050505050565b5f8151905061250181611b5a565b92915050565b5f6020828403121561251c5761251b611b27565b5b5f612529848285016124f3565b91505092915050565b5f6040820190506125455f830185611d00565b6125526020830184611e0b565b9392505050565b7f4e487b71000000000000000000000000000000000000000000000000000000005f52601260045260245ffdfea2646970667358221220472f09469f043b6e9999584fb28c077ffb6fe1f0123f64b255039c68a23fd4fa64736f6c634300081d0033697066733a2f2f516d4e724b6b6d5a6b4a33727974355479357a3641787076587954433954416f7674466171714d6f3670765a5279","linkReferences":{}},"methodIdentifiers":{"approve(address,uint256)":"095ea7b3","balanceOf(address)":"70a08231","getApproved(uint256)":"081812fc","isApprovedForAll(address,address)":"e985e9c5","metaDataURI_()":"af712a3b","mint(address)":"6a627842","name()":"06fdde03","owner()":"8da5cb5b","ownerOf(uint256)":"6352211e","renounceOwnership()":"715018a6","safeTransferFrom(address,address,uint256)":"42842e0e","safeTransferFrom(address,address,uint256,bytes)":"b88d4fde","setApprovalForAll(address,bool)":"a22cb465","supportsInterface(bytes4)":"01ffc9a7","symbol()":"95d89b41","tokenURI(uint256)":"c87b56dd","transferFrom(address,address,uint256)":"23b872dd","transferOwnership(address)":"f2fde38b"},"id":41}