{"abi":[{"type":"constructor","inputs":[{"name":"_name","type":"string","internalType":"string"},{"name":"_symbol","type":"string","internalType":"string"},{"name":"_initialSupply","type":"uint256","internalType":"uint256"}],"stateMutability":"nonpayable"},{"type":"function","name":"allowance","inputs":[{"name":"owner","type":"address","internalType":"address"},{"name":"spender","type":"address","internalType":"address"}],"outputs":[{"name":"","type":"uint256","internalType":"uint256"}],"stateMutability":"view"},{"type":"function","name":"approve","inputs":[{"name":"spender","type":"address","internalType":"address"},{"name":"value","type":"uint256","internalType":"uint256"}],"outputs":[{"name":"","type":"bool","internalType":"bool"}],"stateMutability":"nonpayable"},{"type":"function","name":"balanceOf","inputs":[{"name":"account","type":"address","internalType":"address"}],"outputs":[{"name":"","type":"uint256","internalType":"uint256"}],"stateMutability":"view"},{"type":"function","name":"decimals","inputs":[],"outputs":[{"name":"","type":"uint8","internalType":"uint8"}],"stateMutability":"view"},{"type":"function","name":"encodeNFTData","inputs":[{"name":"nftAddress","type":"address","internalType":"address"},{"name":"tokenId","type":"uint256","internalType":"uint256"}],"outputs":[{"name":"","type":"bytes","internalType":"bytes"}],"stateMutability":"pure"},{"type":"function","name":"name","inputs":[],"outputs":[{"name":"","type":"string","internalType":"string"}],"stateMutability":"view"},{"type":"function","name":"owner","inputs":[],"outputs":[{"name":"","type":"address","internalType":"address"}],"stateMutability":"view"},{"type":"function","name":"renounceOwnership","inputs":[],"outputs":[],"stateMutability":"nonpayable"},{"type":"function","name":"symbol","inputs":[],"outputs":[{"name":"","type":"string","internalType":"string"}],"stateMutability":"view"},{"type":"function","name":"totalSupply","inputs":[],"outputs":[{"name":"","type":"uint256","internalType":"uint256"}],"stateMutability":"view"},{"type":"function","name":"transfer","inputs":[{"name":"to","type":"address","internalType":"address"},{"name":"value","type":"uint256","internalType":"uint256"}],"outputs":[{"name":"","type":"bool","internalType":"bool"}],"stateMutability":"nonpayable"},{"type":"function","name":"transferAndCall","inputs":[{"name":"nftMarketAddress","type":"address","internalType":"address"},{"name":"amount","type":"uint256","internalType":"uint256"},{"name":"data","type":"bytes","internalType":"bytes"}],"outputs":[{"name":"","type":"bool","internalType":"bool"}],"stateMutability":"nonpayable"},{"type":"function","name":"transferFrom","inputs":[{"name":"from","type":"address","internalType":"address"},{"name":"to","type":"address","internalType":"address"},{"name":"value","type":"uint256","internalType":"uint256"}],"outputs":[{"name":"","type":"bool","internalType":"bool"}],"stateMutability":"nonpayable"},{"type":"function","name":"transferOwnership","inputs":[{"name":"newOwner","type":"address","internalType":"address"}],"outputs":[],"stateMutability":"nonpayable"},{"type":"event","name":"Approval","inputs":[{"name":"owner","type":"address","indexed":true,"internalType":"address"},{"name":"spender","type":"address","indexed":true,"internalType":"address"},{"name":"value","type":"uint256","indexed":false,"internalType":"uint256"}],"anonymous":false},{"type":"event","name":"OwnershipTransferred","inputs":[{"name":"previousOwner","type":"address","indexed":true,"internalType":"address"},{"name":"newOwner","type":"address","indexed":true,"internalType":"address"}],"anonymous":false},{"type":"event","name":"Transfer","inputs":[{"name":"from","type":"address","indexed":true,"internalType":"address"},{"name":"to","type":"address","indexed":true,"internalType":"address"},{"name":"value","type":"uint256","indexed":false,"internalType":"uint256"}],"anonymous":false},{"type":"error","name":"ERC20InsufficientAllowance","inputs":[{"name":"spender","type":"address","internalType":"address"},{"name":"allowance","type":"uint256","internalType":"uint256"},{"name":"needed","type":"uint256","internalType":"uint256"}]},{"type":"error","name":"ERC20InsufficientBalance","inputs":[{"name":"sender","type":"address","internalType":"address"},{"name":"balance","type":"uint256","internalType":"uint256"},{"name":"needed","type":"uint256","internalType":"uint256"}]},{"type":"error","name":"ERC20InvalidApprover","inputs":[{"name":"approver","type":"address","internalType":"address"}]},{"type":"error","name":"ERC20InvalidReceiver","inputs":[{"name":"receiver","type":"address","internalType":"address"}]},{"type":"error","name":"ERC20InvalidSender","inputs":[{"name":"sender","type":"address","internalType":"address"}]},{"type":"error","name":"ERC20InvalidSpender","inputs":[{"name":"spender","type":"address","internalType":"address"}]},{"type":"error","name":"OwnableInvalidOwner","inputs":[{"name":"owner","type":"address","internalType":"address"}]},{"type":"error","name":"OwnableUnauthorizedAccount","inputs":[{"name":"account","type":"address","internalType":"address"}]}],"bytecode":{"object":"0x608060405234801561000f575f5ffd5b50604051611dec380380611dec833981810160405281019061003191906105cf565b3383838160039081610043919061085e565b508060049081610053919061085e565b5050505f73ffffffffffffffffffffffffffffffffffffffff168173ffffffffffffffffffffffffffffffffffffffff16036100c6575f6040517f1e4fbdf70000000000000000000000000000000000000000000000000000000081526004016100bd919061096c565b60405180910390fd5b6100d5816100ee60201b60201c565b506100e633826101b160201b60201c565b505050610a42565b5f60055f9054906101000a900473ffffffffffffffffffffffffffffffffffffffff1690508160055f6101000a81548173ffffffffffffffffffffffffffffffffffffffff021916908373ffffffffffffffffffffffffffffffffffffffff1602179055508173ffffffffffffffffffffffffffffffffffffffff168173ffffffffffffffffffffffffffffffffffffffff167f8be0079c531659141344cd1fd0a4f28419497f9722a3daafe3b4186f6b6457e060405160405180910390a35050565b5f73ffffffffffffffffffffffffffffffffffffffff168273ffffffffffffffffffffffffffffffffffffffff1603610221575f6040517fec442f05000000000000000000000000000000000000000000000000000000008152600401610218919061096c565b60405180910390fd5b6102325f838361023660201b60201c565b5050565b5f73ffffffffffffffffffffffffffffffffffffffff168373ffffffffffffffffffffffffffffffffffffffff1603610286578060025f82825461027a91906109b2565b92505081905550610354565b5f5f5f8573ffffffffffffffffffffffffffffffffffffffff1673ffffffffffffffffffffffffffffffffffffffff1681526020019081526020015f205490508181101561030f578381836040517fe450d38c000000000000000000000000000000000000000000000000000000008152600401610306939291906109f4565b60405180910390fd5b8181035f5f8673ffffffffffffffffffffffffffffffffffffffff1673ffffffffffffffffffffffffffffffffffffffff1681526020019081526020015f2081905550505b5f73ffffffffffffffffffffffffffffffffffffffff168273ffffffffffffffffffffffffffffffffffffffff160361039b578060025f82825403925050819055506103e5565b805f5f8473ffffffffffffffffffffffffffffffffffffffff1673ffffffffffffffffffffffffffffffffffffffff1681526020019081526020015f205f82825401925050819055505b8173ffffffffffffffffffffffffffffffffffffffff168373ffffffffffffffffffffffffffffffffffffffff167fddf252ad1be2c89b69c2b068fc378daa952ba7f163c4a11628f55a4df523b3ef836040516104429190610a29565b60405180910390a3505050565b5f604051905090565b5f5ffd5b5f5ffd5b5f5ffd5b5f5ffd5b5f601f19601f8301169050919050565b7f4e487b71000000000000000000000000000000000000000000000000000000005f52604160045260245ffd5b6104ae82610468565b810181811067ffffffffffffffff821117156104cd576104cc610478565b5b80604052505050565b5f6104df61044f565b90506104eb82826104a5565b919050565b5f67ffffffffffffffff82111561050a57610509610478565b5b61051382610468565b9050602081019050919050565b8281835e5f83830152505050565b5f61054061053b846104f0565b6104d6565b90508281526020810184848401111561055c5761055b610464565b5b610567848285610520565b509392505050565b5f82601f83011261058357610582610460565b5b815161059384826020860161052e565b91505092915050565b5f819050919050565b6105ae8161059c565b81146105b8575f5ffd5b50565b5f815190506105c9816105a5565b92915050565b5f5f5f606084860312156105e6576105e5610458565b5b5f84015167ffffffffffffffff8111156106035761060261045c565b5b61060f8682870161056f565b935050602084015167ffffffffffffffff8111156106305761062f61045c565b5b61063c8682870161056f565b925050604061064d868287016105bb565b9150509250925092565b5f81519050919050565b7f4e487b71000000000000000000000000000000000000000000000000000000005f52602260045260245ffd5b5f60028204905060018216806106a557607f821691505b6020821081036106b8576106b7610661565b5b50919050565b5f819050815f5260205f209050919050565b5f6020601f8301049050919050565b5f82821b905092915050565b5f6008830261071a7fffffffffffffffffffffffffffffffffffffffffffffffffffffffffffffffff826106df565b61072486836106df565b95508019841693508086168417925050509392505050565b5f819050919050565b5f61075f61075a6107558461059c565b61073c565b61059c565b9050919050565b5f819050919050565b61077883610745565b61078c61078482610766565b8484546106eb565b825550505050565b5f5f905090565b6107a3610794565b6107ae81848461076f565b505050565b5b818110156107d1576107c65f8261079b565b6001810190506107b4565b5050565b601f821115610816576107e7816106be565b6107f0846106d0565b810160208510156107ff578190505b61081361080b856106d0565b8301826107b3565b50505b505050565b5f82821c905092915050565b5f6108365f198460080261081b565b1980831691505092915050565b5f61084e8383610827565b9150826002028217905092915050565b61086782610657565b67ffffffffffffffff8111156108805761087f610478565b5b61088a825461068e565b6108958282856107d5565b5f60209050601f8311600181146108c6575f84156108b4578287015190505b6108be8582610843565b865550610925565b601f1984166108d4866106be565b5f5b828110156108fb578489015182556001820191506020850194506020810190506108d6565b868310156109185784890151610914601f891682610827565b8355505b6001600288020188555050505b505050505050565b5f73ffffffffffffffffffffffffffffffffffffffff82169050919050565b5f6109568261092d565b9050919050565b6109668161094c565b82525050565b5f60208201905061097f5f83018461095d565b92915050565b7f4e487b71000000000000000000000000000000000000000000000000000000005f52601160045260245ffd5b5f6109bc8261059c565b91506109c78361059c565b92508282019050808211156109df576109de610985565b5b92915050565b6109ee8161059c565b82525050565b5f606082019050610a075f83018661095d565b610a1460208301856109e5565b610a2160408301846109e5565b949350505050565b5f602082019050610a3c5f8301846109e5565b92915050565b61139d80610a4f5f395ff3fe608060405234801561000f575f5ffd5b50600436106100e8575f3560e01c806370a082311161008a57806395d89b411161006457806395d89b411461025e578063a9059cbb1461027c578063dd62ed3e146102ac578063f2fde38b146102dc576100e8565b806370a0823114610206578063715018a6146102365780638da5cb5b14610240576100e8565b806323b872dd116100c657806323b872dd14610158578063313ce567146101885780634000aea0146101a657806366c34a90146101d6576100e8565b806306fdde03146100ec578063095ea7b31461010a57806318160ddd1461013a575b5f5ffd5b6100f46102f8565b6040516101019190610e2f565b60405180910390f35b610124600480360381019061011f9190610ee4565b610388565b6040516101319190610f3c565b60405180910390f35b6101426103aa565b60405161014f9190610f64565b60405180910390f35b610172600480360381019061016d9190610f7d565b6103b3565b60405161017f9190610f3c565b60405180910390f35b6101906103e1565b60405161019d9190610fe8565b60405180910390f35b6101c060048036038101906101bb9190611062565b6103e9565b6040516101cd9190610f3c565b60405180910390f35b6101f060048036038101906101eb9190610ee4565b61048d565b6040516101fd9190611125565b60405180910390f35b610220600480360381019061021b9190611145565b6104b9565b60405161022d9190610f64565b60405180910390f35b61023e6104fe565b005b610248610511565b604051610255919061117f565b60405180910390f35b610266610539565b6040516102739190610e2f565b60405180910390f35b61029660048036038101906102919190610ee4565b6105c9565b6040516102a39190610f3c565b60405180910390f35b6102c660048036038101906102c19190611198565b6105eb565b6040516102d39190610f64565b60405180910390f35b6102f660048036038101906102f19190611145565b61066d565b005b60606003805461030790611203565b80601f016020809104026020016040519081016040528092919081815260200182805461033390611203565b801561037e5780601f106103555761010080835404028352916020019161037e565b820191905f5260205f20905b81548152906001019060200180831161036157829003601f168201915b5050505050905090565b5f5f6103926106f1565b905061039f8185856106f8565b600191505092915050565b5f600254905090565b5f5f6103bd6106f1565b90506103ca85828561070a565b6103d585858561079d565b60019150509392505050565b5f6012905090565b5f6103f533868661079d565b5f8573ffffffffffffffffffffffffffffffffffffffff163b1115610481578473ffffffffffffffffffffffffffffffffffffffff1663d0314263338686866040518563ffffffff1660e01b8152600401610453949392919061126d565b5f604051808303815f87803b15801561046a575f5ffd5b505af115801561047c573d5f5f3e3d5ffd5b505050505b60019050949350505050565b606082826040516020016104a29291906112ab565b604051602081830303815290604052905092915050565b5f5f5f8373ffffffffffffffffffffffffffffffffffffffff1673ffffffffffffffffffffffffffffffffffffffff1681526020019081526020015f20549050919050565b61050661088d565b61050f5f610914565b565b5f60055f9054906101000a900473ffffffffffffffffffffffffffffffffffffffff16905090565b60606004805461054890611203565b80601f016020809104026020016040519081016040528092919081815260200182805461057490611203565b80156105bf5780601f10610596576101008083540402835291602001916105bf565b820191905f5260205f20905b8154815290600101906020018083116105a257829003601f168201915b5050505050905090565b5f5f6105d36106f1565b90506105e081858561079d565b600191505092915050565b5f60015f8473ffffffffffffffffffffffffffffffffffffffff1673ffffffffffffffffffffffffffffffffffffffff1681526020019081526020015f205f8373ffffffffffffffffffffffffffffffffffffffff1673ffffffffffffffffffffffffffffffffffffffff1681526020019081526020015f2054905092915050565b61067561088d565b5f73ffffffffffffffffffffffffffffffffffffffff168173ffffffffffffffffffffffffffffffffffffffff16036106e5575f6040517f1e4fbdf70000000000000000000000000000000000000000000000000000000081526004016106dc919061117f565b60405180910390fd5b6106ee81610914565b50565b5f33905090565b61070583838360016109d7565b505050565b5f61071584846105eb565b90507fffffffffffffffffffffffffffffffffffffffffffffffffffffffffffffffff8110156107975781811015610788578281836040517ffb8f41b200000000000000000000000000000000000000000000000000000000815260040161077f939291906112d2565b60405180910390fd5b61079684848484035f6109d7565b5b50505050565b5f73ffffffffffffffffffffffffffffffffffffffff168373ffffffffffffffffffffffffffffffffffffffff160361080d575f6040517f96c6fd1e000000000000000000000000000000000000000000000000000000008152600401610804919061117f565b60405180910390fd5b5f73ffffffffffffffffffffffffffffffffffffffff168273ffffffffffffffffffffffffffffffffffffffff160361087d575f6040517fec442f05000000000000000000000000000000000000000000000000000000008152600401610874919061117f565b60405180910390fd5b610888838383610ba6565b505050565b6108956106f1565b73ffffffffffffffffffffffffffffffffffffffff166108b3610511565b73ffffffffffffffffffffffffffffffffffffffff1614610912576108d66106f1565b6040517f118cdaa7000000000000000000000000000000000000000000000000000000008152600401610909919061117f565b60405180910390fd5b565b5f60055f9054906101000a900473ffffffffffffffffffffffffffffffffffffffff1690508160055f6101000a81548173ffffffffffffffffffffffffffffffffffffffff021916908373ffffffffffffffffffffffffffffffffffffffff1602179055508173ffffffffffffffffffffffffffffffffffffffff168173ffffffffffffffffffffffffffffffffffffffff167f8be0079c531659141344cd1fd0a4f28419497f9722a3daafe3b4186f6b6457e060405160405180910390a35050565b5f73ffffffffffffffffffffffffffffffffffffffff168473ffffffffffffffffffffffffffffffffffffffff1603610a47575f6040517fe602df05000000000000000000000000000000000000000000000000000000008152600401610a3e919061117f565b60405180910390fd5b5f73ffffffffffffffffffffffffffffffffffffffff168373ffffffffffffffffffffffffffffffffffffffff1603610ab7575f6040517f94280d62000000000000000000000000000000000000000000000000000000008152600401610aae919061117f565b60405180910390fd5b8160015f8673ffffffffffffffffffffffffffffffffffffffff1673ffffffffffffffffffffffffffffffffffffffff1681526020019081526020015f205f8573ffffffffffffffffffffffffffffffffffffffff1673ffffffffffffffffffffffffffffffffffffffff1681526020019081526020015f20819055508015610ba0578273ffffffffffffffffffffffffffffffffffffffff168473ffffffffffffffffffffffffffffffffffffffff167f8c5be1e5ebec7d5bd14f71427d1e84f3dd0314c0f7b2291e5b200ac8c7c3b92584604051610b979190610f64565b60405180910390a35b50505050565b5f73ffffffffffffffffffffffffffffffffffffffff168373ffffffffffffffffffffffffffffffffffffffff1603610bf6578060025f828254610bea9190611334565b92505081905550610cc4565b5f5f5f8573ffffffffffffffffffffffffffffffffffffffff1673ffffffffffffffffffffffffffffffffffffffff1681526020019081526020015f2054905081811015610c7f578381836040517fe450d38c000000000000000000000000000000000000000000000000000000008152600401610c76939291906112d2565b60405180910390fd5b8181035f5f8673ffffffffffffffffffffffffffffffffffffffff1673ffffffffffffffffffffffffffffffffffffffff1681526020019081526020015f2081905550505b5f73ffffffffffffffffffffffffffffffffffffffff168273ffffffffffffffffffffffffffffffffffffffff1603610d0b578060025f8282540392505081905550610d55565b805f5f8473ffffffffffffffffffffffffffffffffffffffff1673ffffffffffffffffffffffffffffffffffffffff1681526020019081526020015f205f82825401925050819055505b8173ffffffffffffffffffffffffffffffffffffffff168373ffffffffffffffffffffffffffffffffffffffff167fddf252ad1be2c89b69c2b068fc378daa952ba7f163c4a11628f55a4df523b3ef83604051610db29190610f64565b60405180910390a3505050565b5f81519050919050565b5f82825260208201905092915050565b8281835e5f83830152505050565b5f601f19601f8301169050919050565b5f610e0182610dbf565b610e0b8185610dc9565b9350610e1b818560208601610dd9565b610e2481610de7565b840191505092915050565b5f6020820190508181035f830152610e478184610df7565b905092915050565b5f5ffd5b5f5ffd5b5f73ffffffffffffffffffffffffffffffffffffffff82169050919050565b5f610e8082610e57565b9050919050565b610e9081610e76565b8114610e9a575f5ffd5b50565b5f81359050610eab81610e87565b92915050565b5f819050919050565b610ec381610eb1565b8114610ecd575f5ffd5b50565b5f81359050610ede81610eba565b92915050565b5f5f60408385031215610efa57610ef9610e4f565b5b5f610f0785828601610e9d565b9250506020610f1885828601610ed0565b9150509250929050565b5f8115159050919050565b610f3681610f22565b82525050565b5f602082019050610f4f5f830184610f2d565b92915050565b610f5e81610eb1565b82525050565b5f602082019050610f775f830184610f55565b92915050565b5f5f5f60608486031215610f9457610f93610e4f565b5b5f610fa186828701610e9d565b9350506020610fb286828701610e9d565b9250506040610fc386828701610ed0565b9150509250925092565b5f60ff82169050919050565b610fe281610fcd565b82525050565b5f602082019050610ffb5f830184610fd9565b92915050565b5f5ffd5b5f5ffd5b5f5ffd5b5f5f83601f84011261102257611021611001565b5b8235905067ffffffffffffffff81111561103f5761103e611005565b5b60208301915083600182028301111561105b5761105a611009565b5b9250929050565b5f5f5f5f6060858703121561107a57611079610e4f565b5b5f61108787828801610e9d565b945050602061109887828801610ed0565b935050604085013567ffffffffffffffff8111156110b9576110b8610e53565b5b6110c58782880161100d565b925092505092959194509250565b5f81519050919050565b5f82825260208201905092915050565b5f6110f7826110d3565b61110181856110dd565b9350611111818560208601610dd9565b61111a81610de7565b840191505092915050565b5f6020820190508181035f83015261113d81846110ed565b905092915050565b5f6020828403121561115a57611159610e4f565b5b5f61116784828501610e9d565b91505092915050565b61117981610e76565b82525050565b5f6020820190506111925f830184611170565b92915050565b5f5f604083850312156111ae576111ad610e4f565b5b5f6111bb85828601610e9d565b92505060206111cc85828601610e9d565b9150509250929050565b7f4e487b71000000000000000000000000000000000000000000000000000000005f52602260045260245ffd5b5f600282049050600182168061121a57607f821691505b60208210810361122d5761122c6111d6565b5b50919050565b828183375f83830152505050565b5f61124c83856110dd565b9350611259838584611233565b61126283610de7565b840190509392505050565b5f6060820190506112805f830187611170565b61128d6020830186610f55565b81810360408301526112a0818486611241565b905095945050505050565b5f6040820190506112be5f830185611170565b6112cb6020830184610f55565b9392505050565b5f6060820190506112e55f830186611170565b6112f26020830185610f55565b6112ff6040830184610f55565b949350505050565b7f4e487b71000000000000000000000000000000000000000000000000000000005f52601160045260245ffd5b5f61133e82610eb1565b915061134983610eb1565b925082820190508082111561136157611360611307565b5b9291505056fea264697066735822122092b21ffb9842e1ddf8986da6f1140a37c006991a72f7a457822a71618e2d269b64736f6c634300081d0033","linkReferences":{}},"methodIdentifiers":{"allowance(address,address)":"dd62ed3e","approve(address,uint256)":"095ea7b3","balanceOf(address)":"70a08231","decimals()":"313ce567","encodeNFTData(address,uint256)":"66c34a90","name()":"06fdde03","owner()":"8da5cb5b","renounceOwnership()":"715018a6","symbol()":"95d89b41","totalSupply()":"18160ddd","transfer(address,uint256)":"a9059cbb","transferAndCall(address,uint256,bytes)":"4000aea0","transferFrom(address,address,uint256)":"23b872dd","transferOwnership(address)":"f2fde38b"},"id":42}