{"abi":[{"type":"constructor","inputs":[{"name":"_paymentToken","type":"address","internalType":"address"}],"stateMutability":"nonpayable"},{"type":"function","name":"buyNFT","inputs":[{"name":"nftAddress","type":"address","internalType":"address"},{"name":"tokenId","type":"uint256","internalType":"uint256"}],"outputs":[],"stateMutability":"nonpayable"},{"type":"function","name":"delist","inputs":[{"name":"nftAddress","type":"address","internalType":"address"},{"name":"tokenId","type":"uint256","internalType":"uint256"}],"outputs":[],"stateMutability":"nonpayable"},{"type":"function","name":"list","inputs":[{"name":"nftAddress","type":"address","internalType":"address"},{"name":"tokenId","type":"uint256","internalType":"uint256"},{"name":"price","type":"uint256","internalType":"uint256"}],"outputs":[],"stateMutability":"nonpayable"},{"type":"function","name":"listings","inputs":[{"name":"","type":"address","internalType":"address"},{"name":"","type":"uint256","internalType":"uint256"}],"outputs":[{"name":"seller","type":"address","internalType":"address"},{"name":"price","type":"uint256","internalType":"uint256"},{"name":"tokenAddress","type":"address","internalType":"address"}],"stateMutability":"view"},{"type":"function","name":"owner","inputs":[],"outputs":[{"name":"","type":"address","internalType":"address"}],"stateMutability":"view"},{"type":"function","name":"paymentToken","inputs":[],"outputs":[{"name":"","type":"address","internalType":"contract IERC20"}],"stateMutability":"view"},{"type":"function","name":"renounceOwnership","inputs":[],"outputs":[],"stateMutability":"nonpayable"},{"type":"function","name":"tokensReceived","inputs":[{"name":"from","type":"address","internalType":"address"},{"name":"amount","type":"uint256","internalType":"uint256"},{"name":"data","type":"bytes","internalType":"bytes"}],"outputs":[],"stateMutability":"nonpayable"},{"type":"function","name":"transferOwnership","inputs":[{"name":"newOwner","type":"address","internalType":"address"}],"outputs":[],"stateMutability":"nonpayable"},{"type":"event","name":"Bought","inputs":[{"name":"nftAddress","type":"address","indexed":true,"internalType":"address"},{"name":"tokenId","type":"uint256","indexed":true,"internalType":"uint256"},{"name":"buyer","type":"address","indexed":false,"internalType":"address"},{"name":"price","type":"uint256","indexed":false,"internalType":"uint256"}],"anonymous":false},{"type":"event","name":"Delisted","inputs":[{"name":"nftAddress","type":"address","indexed":true,"internalType":"address"},{"name":"tokenId","type":"uint256","indexed":true,"internalType":"uint256"},{"name":"seller","type":"address","indexed":false,"internalType":"address"}],"anonymous":false},{"type":"event","name":"Listed","inputs":[{"name":"nftAddress","type":"address","indexed":true,"internalType":"address"},{"name":"tokenId","type":"uint256","indexed":true,"internalType":"uint256"},{"name":"seller","type":"address","indexed":false,"internalType":"address"},{"name":"price","type":"uint256","indexed":false,"internalType":"uint256"}],"anonymous":false},{"type":"event","name":"OwnershipTransferred","inputs":[{"name":"previousOwner","type":"address","indexed":true,"internalType":"address"},{"name":"newOwner","type":"address","indexed":true,"internalType":"address"}],"anonymous":false},{"type":"error","name":"OwnableInvalidOwner","inputs":[{"name":"owner","type":"address","internalType":"address"}]},{"type":"error","name":"OwnableUnauthorizedAccount","inputs":[{"name":"account","type":"address","internalType":"address"}]}],"bytecode":{"object":"0x608060405234801561000f575f5ffd5b50604051611bd5380380611bd583398181016040528101906100319190610217565b335f73ffffffffffffffffffffffffffffffffffffffff168173ffffffffffffffffffffffffffffffffffffffff16036100a2575f6040517f1e4fbdf70000000000000000000000000000000000000000000000000000000081526004016100999190610251565b60405180910390fd5b6100b1816100f860201b60201c565b508060025f6101000a81548173ffffffffffffffffffffffffffffffffffffffff021916908373ffffffffffffffffffffffffffffffffffffffff1602179055505061026a565b5f5f5f9054906101000a900473ffffffffffffffffffffffffffffffffffffffff169050815f5f6101000a81548173ffffffffffffffffffffffffffffffffffffffff021916908373ffffffffffffffffffffffffffffffffffffffff1602179055508173ffffffffffffffffffffffffffffffffffffffff168173ffffffffffffffffffffffffffffffffffffffff167f8be0079c531659141344cd1fd0a4f28419497f9722a3daafe3b4186f6b6457e060405160405180910390a35050565b5f5ffd5b5f73ffffffffffffffffffffffffffffffffffffffff82169050919050565b5f6101e6826101bd565b9050919050565b6101f6816101dc565b8114610200575f5ffd5b50565b5f81519050610211816101ed565b92915050565b5f6020828403121561022c5761022b6101b9565b5b5f61023984828501610203565b91505092915050565b61024b816101dc565b82525050565b5f6020820190506102645f830184610242565b92915050565b61195e806102775f395ff3fe608060405234801561000f575f5ffd5b5060043610610090575f3560e01c8063a82ba76f11610064578063a82ba76f1461010c578063d031426314610128578063dda342bb14610144578063f074258e14610160578063f2fde38b1461017c57610090565b806207df30146100945780633013ce29146100c6578063715018a6146100e45780638da5cb5b146100ee575b5f5ffd5b6100ae60048036038101906100a991906112b0565b610198565b6040516100bd9392919061130c565b60405180910390f35b6100ce610207565b6040516100db919061139c565b60405180910390f35b6100ec61022c565b005b6100f661023f565b60405161010391906113b5565b60405180910390f35b610126600480360381019061012191906112b0565b610266565b005b610142600480360381019061013d919061142f565b6105c4565b005b61015e600480360381019061015991906114a0565b610a0f565b005b61017a600480360381019061017591906112b0565b610d25565b005b610196600480360381019061019191906114f0565b611048565b005b6001602052815f5260405f20602052805f5260405f205f9150915050805f015f9054906101000a900473ffffffffffffffffffffffffffffffffffffffff1690806001015490806002015f9054906101000a900473ffffffffffffffffffffffffffffffffffffffff16905083565b60025f9054906101000a900473ffffffffffffffffffffffffffffffffffffffff1681565b6102346110cc565b61023d5f611153565b565b5f5f5f9054906101000a900473ffffffffffffffffffffffffffffffffffffffff16905090565b5f60015f8473ffffffffffffffffffffffffffffffffffffffff1673ffffffffffffffffffffffffffffffffffffffff1681526020019081526020015f205f8381526020019081526020015f206040518060600160405290815f82015f9054906101000a900473ffffffffffffffffffffffffffffffffffffffff1673ffffffffffffffffffffffffffffffffffffffff1673ffffffffffffffffffffffffffffffffffffffff16815260200160018201548152602001600282015f9054906101000a900473ffffffffffffffffffffffffffffffffffffffff1673ffffffffffffffffffffffffffffffffffffffff1673ffffffffffffffffffffffffffffffffffffffff168152505090505f8160200151116103b9576040517f08c379a00000000000000000000000000000000000000000000000000000000081526004016103b090611575565b60405180910390fd5b60025f9054906101000a900473ffffffffffffffffffffffffffffffffffffffff1673ffffffffffffffffffffffffffffffffffffffff166323b872dd33835f015184602001516040518463ffffffff1660e01b815260040161041e93929190611593565b6020604051808303815f875af115801561043a573d5f5f3e3d5ffd5b505050506040513d601f19601f8201168201806040525081019061045e91906115fd565b508273ffffffffffffffffffffffffffffffffffffffff166323b872dd3033856040518463ffffffff1660e01b815260040161049c93929190611593565b5f604051808303815f87803b1580156104b3575f5ffd5b505af11580156104c5573d5f5f3e3d5ffd5b5050505060015f8473ffffffffffffffffffffffffffffffffffffffff1673ffffffffffffffffffffffffffffffffffffffff1681526020019081526020015f205f8381526020019081526020015f205f5f82015f6101000a81549073ffffffffffffffffffffffffffffffffffffffff0219169055600182015f9055600282015f6101000a81549073ffffffffffffffffffffffffffffffffffffffff02191690555050818373ffffffffffffffffffffffffffffffffffffffff167fbe39bcb4b5645ce3e99dc49d095db856201db6af874a4d39b96cd1ed4a06a11d3384602001516040516105b7929190611628565b60405180910390a3505050565b60025f9054906101000a900473ffffffffffffffffffffffffffffffffffffffff1673ffffffffffffffffffffffffffffffffffffffff163373ffffffffffffffffffffffffffffffffffffffff1614610653576040517f08c379a000000000000000000000000000000000000000000000000000000000815260040161064a90611699565b60405180910390fd5b5f5f838381019061066491906116f2565b915091505f60015f8473ffffffffffffffffffffffffffffffffffffffff1673ffffffffffffffffffffffffffffffffffffffff1681526020019081526020015f205f8381526020019081526020015f206040518060600160405290815f82015f9054906101000a900473ffffffffffffffffffffffffffffffffffffffff1673ffffffffffffffffffffffffffffffffffffffff1673ffffffffffffffffffffffffffffffffffffffff16815260200160018201548152602001600282015f9054906101000a900473ffffffffffffffffffffffffffffffffffffffff1673ffffffffffffffffffffffffffffffffffffffff1673ffffffffffffffffffffffffffffffffffffffff168152505090505f8160200151116107bb576040517f08c379a00000000000000000000000000000000000000000000000000000000081526004016107b290611575565b60405180910390fd5b8060200151861015610802576040517f08c379a00000000000000000000000000000000000000000000000000000000081526004016107f99061177a565b60405180910390fd5b8273ffffffffffffffffffffffffffffffffffffffff166323b872dd3089856040518463ffffffff1660e01b815260040161083f93929190611593565b5f604051808303815f87803b158015610856575f5ffd5b505af1158015610868573d5f5f3e3d5ffd5b5050505060025f9054906101000a900473ffffffffffffffffffffffffffffffffffffffff1673ffffffffffffffffffffffffffffffffffffffff1663a9059cbb825f015183602001516040518363ffffffff1660e01b81526004016108cf929190611628565b6020604051808303815f875af11580156108eb573d5f5f3e3d5ffd5b505050506040513d601f19601f8201168201806040525081019061090f91906115fd565b5060015f8473ffffffffffffffffffffffffffffffffffffffff1673ffffffffffffffffffffffffffffffffffffffff1681526020019081526020015f205f8381526020019081526020015f205f5f82015f6101000a81549073ffffffffffffffffffffffffffffffffffffffff0219169055600182015f9055600282015f6101000a81549073ffffffffffffffffffffffffffffffffffffffff02191690555050818373ffffffffffffffffffffffffffffffffffffffff167fbe39bcb4b5645ce3e99dc49d095db856201db6af874a4d39b96cd1ed4a06a11d8984602001516040516109fe929190611628565b60405180910390a350505050505050565b5f8390503373ffffffffffffffffffffffffffffffffffffffff168173ffffffffffffffffffffffffffffffffffffffff16636352211e856040518263ffffffff1660e01b8152600401610a639190611798565b602060405180830381865afa158015610a7e573d5f5f3e3d5ffd5b505050506040513d601f19601f82011682018060405250810190610aa291906117c5565b73ffffffffffffffffffffffffffffffffffffffff1614610af8576040517f08c379a0000000000000000000000000000000000000000000000000000000008152600401610aef9061183a565b60405180910390fd5b5f8211610b3a576040517f08c379a0000000000000000000000000000000000000000000000000000000008152600401610b31906118a2565b60405180910390fd5b8073ffffffffffffffffffffffffffffffffffffffff166323b872dd3330866040518463ffffffff1660e01b8152600401610b7793929190611593565b5f604051808303815f87803b158015610b8e575f5ffd5b505af1158015610ba0573d5f5f3e3d5ffd5b5050505060405180606001604052803373ffffffffffffffffffffffffffffffffffffffff1681526020018381526020018573ffffffffffffffffffffffffffffffffffffffff1681525060015f8673ffffffffffffffffffffffffffffffffffffffff1673ffffffffffffffffffffffffffffffffffffffff1681526020019081526020015f205f8581526020019081526020015f205f820151815f015f6101000a81548173ffffffffffffffffffffffffffffffffffffffff021916908373ffffffffffffffffffffffffffffffffffffffff160217905550602082015181600101556040820151816002015f6101000a81548173ffffffffffffffffffffffffffffffffffffffff021916908373ffffffffffffffffffffffffffffffffffffffff160217905550905050828473ffffffffffffffffffffffffffffffffffffffff167f8b06cda60618abf2b2d07227f9dd63ec6349ca3269ce0eb18d49122a48362ad83385604051610d17929190611628565b60405180910390a350505050565b5f60015f8473ffffffffffffffffffffffffffffffffffffffff1673ffffffffffffffffffffffffffffffffffffffff1681526020019081526020015f205f8381526020019081526020015f206040518060600160405290815f82015f9054906101000a900473ffffffffffffffffffffffffffffffffffffffff1673ffffffffffffffffffffffffffffffffffffffff1673ffffffffffffffffffffffffffffffffffffffff16815260200160018201548152602001600282015f9054906101000a900473ffffffffffffffffffffffffffffffffffffffff1673ffffffffffffffffffffffffffffffffffffffff1673ffffffffffffffffffffffffffffffffffffffff168152505090505f816020015111610e78576040517f08c379a0000000000000000000000000000000000000000000000000000000008152600401610e6f90611575565b60405180910390fd5b3373ffffffffffffffffffffffffffffffffffffffff16815f015173ffffffffffffffffffffffffffffffffffffffff1614610ee9576040517f08c379a0000000000000000000000000000000000000000000000000000000008152600401610ee09061190a565b60405180910390fd5b8273ffffffffffffffffffffffffffffffffffffffff166323b872dd3033856040518463ffffffff1660e01b8152600401610f2693929190611593565b5f604051808303815f87803b158015610f3d575f5ffd5b505af1158015610f4f573d5f5f3e3d5ffd5b5050505060015f8473ffffffffffffffffffffffffffffffffffffffff1673ffffffffffffffffffffffffffffffffffffffff1681526020019081526020015f205f8381526020019081526020015f205f5f82015f6101000a81549073ffffffffffffffffffffffffffffffffffffffff0219169055600182015f9055600282015f6101000a81549073ffffffffffffffffffffffffffffffffffffffff02191690555050818373ffffffffffffffffffffffffffffffffffffffff167f9db7ba4a2920e0c8066731bb48bca5ee2a652267b7e73d0502962c29f1e41ead3360405161103b91906113b5565b60405180910390a3505050565b6110506110cc565b5f73ffffffffffffffffffffffffffffffffffffffff168173ffffffffffffffffffffffffffffffffffffffff16036110c0575f6040517f1e4fbdf70000000000000000000000000000000000000000000000000000000081526004016110b791906113b5565b60405180910390fd5b6110c981611153565b50565b6110d4611214565b73ffffffffffffffffffffffffffffffffffffffff166110f261023f565b73ffffffffffffffffffffffffffffffffffffffff161461115157611115611214565b6040517f118cdaa700000000000000000000000000000000000000000000000000000000815260040161114891906113b5565b60405180910390fd5b565b5f5f5f9054906101000a900473ffffffffffffffffffffffffffffffffffffffff169050815f5f6101000a81548173ffffffffffffffffffffffffffffffffffffffff021916908373ffffffffffffffffffffffffffffffffffffffff1602179055508173ffffffffffffffffffffffffffffffffffffffff168173ffffffffffffffffffffffffffffffffffffffff167f8be0079c531659141344cd1fd0a4f28419497f9722a3daafe3b4186f6b6457e060405160405180910390a35050565b5f33905090565b5f5ffd5b5f5ffd5b5f73ffffffffffffffffffffffffffffffffffffffff82169050919050565b5f61124c82611223565b9050919050565b61125c81611242565b8114611266575f5ffd5b50565b5f8135905061127781611253565b92915050565b5f819050919050565b61128f8161127d565b8114611299575f5ffd5b50565b5f813590506112aa81611286565b92915050565b5f5f604083850312156112c6576112c561121b565b5b5f6112d385828601611269565b92505060206112e48582860161129c565b9150509250929050565b6112f781611242565b82525050565b6113068161127d565b82525050565b5f60608201905061131f5f8301866112ee565b61132c60208301856112fd565b61133960408301846112ee565b949350505050565b5f819050919050565b5f61136461135f61135a84611223565b611341565b611223565b9050919050565b5f6113758261134a565b9050919050565b5f6113868261136b565b9050919050565b6113968161137c565b82525050565b5f6020820190506113af5f83018461138d565b92915050565b5f6020820190506113c85f8301846112ee565b92915050565b5f5ffd5b5f5ffd5b5f5ffd5b5f5f83601f8401126113ef576113ee6113ce565b5b8235905067ffffffffffffffff81111561140c5761140b6113d2565b5b602083019150836001820283011115611428576114276113d6565b5b9250929050565b5f5f5f5f606085870312156114475761144661121b565b5b5f61145487828801611269565b94505060206114658782880161129c565b935050604085013567ffffffffffffffff8111156114865761148561121f565b5b611492878288016113da565b925092505092959194509250565b5f5f5f606084860312156114b7576114b661121b565b5b5f6114c486828701611269565b93505060206114d58682870161129c565b92505060406114e68682870161129c565b9150509250925092565b5f602082840312156115055761150461121b565b5b5f61151284828501611269565b91505092915050565b5f82825260208201905092915050565b7f4e6f74206c6973746564000000000000000000000000000000000000000000005f82015250565b5f61155f600a8361151b565b915061156a8261152b565b602082019050919050565b5f6020820190508181035f83015261158c81611553565b9050919050565b5f6060820190506115a65f8301866112ee565b6115b360208301856112ee565b6115c060408301846112fd565b949350505050565b5f8115159050919050565b6115dc816115c8565b81146115e6575f5ffd5b50565b5f815190506115f7816115d3565b92915050565b5f602082840312156116125761161161121b565b5b5f61161f848285016115e9565b91505092915050565b5f60408201905061163b5f8301856112ee565b61164860208301846112fd565b9392505050565b7f496e76616c696420746f6b656e000000000000000000000000000000000000005f82015250565b5f611683600d8361151b565b915061168e8261164f565b602082019050919050565b5f6020820190508181035f8301526116b081611677565b9050919050565b5f6116c182611223565b9050919050565b6116d1816116b7565b81146116db575f5ffd5b50565b5f813590506116ec816116c8565b92915050565b5f5f604083850312156117085761170761121b565b5b5f611715858286016116de565b92505060206117268582860161129c565b9150509250929050565b7f4e6f7420656e6f75676820746f6b656e730000000000000000000000000000005f82015250565b5f61176460118361151b565b915061176f82611730565b602082019050919050565b5f6020820190508181035f83015261179181611758565b9050919050565b5f6020820190506117ab5f8301846112fd565b92915050565b5f815190506117bf81611253565b92915050565b5f602082840312156117da576117d961121b565b5b5f6117e7848285016117b1565b91505092915050565b7f4e6f74206f776e657200000000000000000000000000000000000000000000005f82015250565b5f61182460098361151b565b915061182f826117f0565b602082019050919050565b5f6020820190508181035f83015261185181611818565b9050919050565b7f5072696365206d757374206265203e20300000000000000000000000000000005f82015250565b5f61188c60118361151b565b915061189782611858565b602082019050919050565b5f6020820190508181035f8301526118b981611880565b9050919050565b7f4e6f742073656c6c6572000000000000000000000000000000000000000000005f82015250565b5f6118f4600a8361151b565b91506118ff826118c0565b602082019050919050565b5f6020820190508181035f830152611921816118e8565b905091905056fea2646970667358221220c170fa8a03b8fa5c8612da24139a82585456fd46400a58657e621fb573b9495164736f6c634300081d0033","linkReferences":{}},"methodIdentifiers":{"buyNFT(address,uint256)":"a82ba76f","delist(address,uint256)":"f074258e","list(address,uint256,uint256)":"dda342bb","listings(address,uint256)":"0007df30","owner()":"8da5cb5b","paymentToken()":"3013ce29","renounceOwnership()":"715018a6","tokensReceived(address,uint256,bytes)":"d0314263","transferOwnership(address)":"f2fde38b"},"id":43}