{"abi":[{"type":"constructor","inputs":[{"name":"_tokenAddress","type":"address","internalType":"address"}],"stateMutability":"nonpayable"},{"type":"function","name":"PERMIT2_ADDRESS","inputs":[],"outputs":[{"name":"","type":"address","internalType":"address"}],"stateMutability":"view"},{"type":"function","name":"balanceOf","inputs":[{"name":"_user","type":"address","internalType":"address"}],"outputs":[{"name":"","type":"uint256","internalType":"uint256"}],"stateMutability":"view"},{"type":"function","name":"deposit","inputs":[{"name":"_amount","type":"uint256","internalType":"uint256"}],"outputs":[],"stateMutability":"nonpayable"},{"type":"function","name":"depositWithPermit2","inputs":[{"name":"_amount","type":"uint256","internalType":"uint256"},{"name":"_nonce","type":"uint256","internalType":"uint256"},{"name":"_deadline","type":"uint256","internalType":"uint256"},{"name":"_signature","type":"bytes","internalType":"bytes"}],"outputs":[],"stateMutability":"nonpayable"},{"type":"function","name":"deposits","inputs":[{"name":"","type":"address","internalType":"address"}],"outputs":[{"name":"","type":"uint256","internalType":"uint256"}],"stateMutability":"view"},{"type":"function","name":"token","inputs":[],"outputs":[{"name":"","type":"address","internalType":"contract IERC20"}],"stateMutability":"view"},{"type":"function","name":"withdraw","inputs":[{"name":"_amount","type":"uint256","internalType":"uint256"}],"outputs":[],"stateMutability":"nonpayable"},{"type":"event","name":"Deposit","inputs":[{"name":"user","type":"address","indexed":true,"internalType":"address"},{"name":"amount","type":"uint256","indexed":false,"internalType":"uint256"}],"anonymous":false},{"type":"event","name":"Withdraw","inputs":[{"name":"user","type":"address","indexed":true,"internalType":"address"},{"name":"amount","type":"uint256","indexed":false,"internalType":"uint256"}],"anonymous":false}],"bytecode":{"object":"0x60803460c957601f61091138819003918201601f19168301916001600160401b0383118484101760cd5780849260209460405283398101031260c957516001600160a01b0381169081900360c95780156074575f80546001600160a01b03191691909117905560405161082f90816100e28239f35b60405162461bcd60e51b815260206004820152602760248201527f546f6b656e42616e6b3a20746f6b656e20616464726573732063616e6e6f74206044820152666265207a65726f60c81b6064820152608490fd5b5f80fd5b634e487b7160e01b5f52604160045260245ffdfe6080806040526004361015610012575f80fd5b5f905f3560e01c9081632e1a7d4d1461051d5750806370a08231146104e1578063b6b55f251461038d578063e21b732214610102578063e5777b77146100d3578063fc0c546a146100ac5763fc7e286d1461006b575f80fd5b346100a95760203660031901126100a9576004356001600160a01b038116908190036100a7578160409160209352600183522054604051908152f35b505b80fd5b50346100a957806003193601126100a957546040516001600160a01b039091168152602090f35b50346100a957806003193601126100a9576020604051735fbdb2315678afecb367f032d93f642f64180aa38152f35b503461033f57608036600319011261033f5760043560643567ffffffffffffffff811161033f573660238201121561033f57806004013567ffffffffffffffff811161033f57366024828401011161033f5761015f831515610738565b5f546040516370a0823160e01b81523360048201526001600160a01b039091169190602081602481865afa80156103345785905f90610357575b6101a5925010156107a0565b604051916101b283610696565b8252836020830152604051916060830183811067ffffffffffffffff8211176103435760405282526020820192602435845260408301926044358452604051926101fb84610696565b308452866020850152735fbdb2315678afecb367f032d93f642f64180aa33b1561033f578060246101249461028561025e975f996040519b8c9a8b9963187945bd60e11b8b5260048b0190516020809160018060a01b0381511684520151910152565b51604489015251606488015280516001600160a01b031660848801526020015160a4870152565b3360c486015261010060e48601528261010486015201848401378181018301859052601f01601f1916810103018183735fbdb2315678afecb367f032d93f642f64180aa35af180156103345761031f575b503382526001602052604082206102ee8282546107ec565b90556040519081527fe1fffcc4923d04b559f4d29a8bfc6cda04eb5b0d3c460751c2402c5c5cc9109c60203392a280f35b61032c9192505f906106b2565b5f905f6102d6565b6040513d5f823e3d90fd5b5f80fd5b634e487b7160e01b5f52604160045260245ffd5b50506020813d602011610385575b81610372602093836106b2565b8101031261033f57846101a59151610199565b3d9150610365565b3461033f57602036600319011261033f576004356103ac811515610738565b5f546040516370a0823160e01b81523360048201526001600160a01b0390911690602081602481855afa80156103345783915f916104aa575b50916103f66020925f9410156107a0565b6064604051809481936323b872dd60e01b83523360048401523060248401528760448401525af1801561033457610434915f9161047b575b506106ec565b335f52600160205260405f2061044b8282546107ec565b90556040519081527fe1fffcc4923d04b559f4d29a8bfc6cda04eb5b0d3c460751c2402c5c5cc9109c60203392a2005b61049d915060203d6020116104a3575b61049581836106b2565b8101906106d4565b8361042e565b503d61048b565b9150506020813d6020116104d9575b816104c6602093836106b2565b8101031261033f575182906103f66103e5565b3d91506104b9565b3461033f57602036600319011261033f576004356001600160a01b0381169081900361033f575f526001602052602060405f2054604051908152f35b3461033f57602036600319011261033f576004359081156106375750335f5260016020528060405f2054106105f257335f52600160205260405f208054908282039182116105de57555f805460405163a9059cbb60e01b8152336004820152602481018490529160209183916044918391906001600160a01b03165af18015610334576105b0915f9161047b57506106ec565b6040519081527f884edad9ce6fa2440d8a54cc123490eb96d2768479d49ff9c7366125a942436460203392a2005b634e487b7160e01b5f52601160045260245ffd5b60405162461bcd60e51b815260206004820152601f60248201527f546f6b656e42616e6b3a20696e73756666696369656e74206465706f736974006044820152606490fd5b62461bcd60e51b815260206004820152603460248201527f546f6b656e42616e6b3a20776974686472617720616d6f756e74206d7573742060448201527362652067726561746572207468616e207a65726f60601b6064820152608490fd5b6040810190811067ffffffffffffffff82111761034357604052565b90601f8019910116810190811067ffffffffffffffff82111761034357604052565b9081602091031261033f5751801515810361033f5790565b156106f357565b60405162461bcd60e51b815260206004820152601a60248201527f546f6b656e42616e6b3a207472616e73666572206661696c65640000000000006044820152606490fd5b1561073f57565b60405162461bcd60e51b815260206004820152603360248201527f546f6b656e42616e6b3a206465706f73697420616d6f756e74206d7573742062604482015272652067726561746572207468616e207a65726f60681b6064820152608490fd5b156107a757565b60405162461bcd60e51b815260206004820152601f60248201527f546f6b656e42616e6b3a20696e73756666696369656e742062616c616e6365006044820152606490fd5b919082018092116105de5756fea26469706673582212202877275badb77aa75726fff333b6423405c6bba5646368bffd74edde0b2cf73e64736f6c634300081d0033","linkReferences":{}},"methodIdentifiers":{"PERMIT2_ADDRESS()":"e5777b77","balanceOf(address)":"70a08231","deposit(uint256)":"b6b55f25","depositWithPermit2(uint256,uint256,uint256,bytes)":"e21b7322","deposits(address)":"fc7e286d","token()":"fc0c546a","withdraw(uint256)":"2e1a7d4d"},"id":28}