{"abi":[{"type":"constructor","inputs":[{"name":"_tokenAddress","type":"address","internalType":"address"}],"stateMutability":"nonpayable"},{"type":"function","name":"balances","inputs":[{"name":"","type":"address","internalType":"address"}],"outputs":[{"name":"","type":"uint256","internalType":"uint256"}],"stateMutability":"view"},{"type":"function","name":"deposit","inputs":[{"name":"amount","type":"uint256","internalType":"uint256"}],"outputs":[],"stateMutability":"nonpayable"},{"type":"function","name":"token","inputs":[],"outputs":[{"name":"","type":"address","internalType":"contract IERC20"}],"stateMutability":"view"},{"type":"function","name":"withdraw","inputs":[{"name":"amount","type":"uint256","internalType":"uint256"}],"outputs":[],"stateMutability":"nonpayable"}],"bytecode":{"object":"0x608060405234801561000f575f5ffd5b506040516109e83803806109e8833981810160405281019061003191906100d4565b805f5f6101000a81548173ffffffffffffffffffffffffffffffffffffffff021916908373ffffffffffffffffffffffffffffffffffffffff160217905550506100ff565b5f5ffd5b5f73ffffffffffffffffffffffffffffffffffffffff82169050919050565b5f6100a38261007a565b9050919050565b6100b381610099565b81146100bd575f5ffd5b50565b5f815190506100ce816100aa565b92915050565b5f602082840312156100e9576100e8610076565b5b5f6100f6848285016100c0565b91505092915050565b6108dc8061010c5f395ff3fe608060405234801561000f575f5ffd5b506004361061004a575f3560e01c806327e235e31461004e5780632e1a7d4d1461007e578063b6b55f251461009a578063fc0c546a146100b6575b5f5ffd5b610068600480360381019061006391906104db565b6100d4565b604051610075919061051e565b60405180910390f35b61009860048036038101906100939190610561565b6100e9565b005b6100b460048036038101906100af9190610561565b6102e0565b005b6100be610459565b6040516100cb91906105e7565b60405180910390f35b6001602052805f5260405f205f915090505481565b5f811161012b576040517f08c379a00000000000000000000000000000000000000000000000000000000081526004016101229061065a565b60405180910390fd5b8060015f3373ffffffffffffffffffffffffffffffffffffffff1673ffffffffffffffffffffffffffffffffffffffff1681526020019081526020015f205410156101ab576040517f08c379a00000000000000000000000000000000000000000000000000000000081526004016101a2906106c2565b60405180910390fd5b8060015f3373ffffffffffffffffffffffffffffffffffffffff1673ffffffffffffffffffffffffffffffffffffffff1681526020019081526020015f205f8282546101f7919061070d565b925050819055505f5f5f9054906101000a900473ffffffffffffffffffffffffffffffffffffffff1673ffffffffffffffffffffffffffffffffffffffff1663a9059cbb33846040518363ffffffff1660e01b815260040161025a92919061074f565b6020604051808303815f875af1158015610276573d5f5f3e3d5ffd5b505050506040513d601f19601f8201168201806040525081019061029a91906107ab565b9050806102dc576040517f08c379a00000000000000000000000000000000000000000000000000000000081526004016102d390610820565b60405180910390fd5b5050565b5f8111610322576040517f08c379a00000000000000000000000000000000000000000000000000000000081526004016103199061065a565b60405180910390fd5b5f5f5f9054906101000a900473ffffffffffffffffffffffffffffffffffffffff1673ffffffffffffffffffffffffffffffffffffffff166323b872dd3330856040518463ffffffff1660e01b81526004016103809392919061083e565b6020604051808303815f875af115801561039c573d5f5f3e3d5ffd5b505050506040513d601f19601f820116820180604052508101906103c091906107ab565b905080610402576040517f08c379a00000000000000000000000000000000000000000000000000000000081526004016103f990610820565b60405180910390fd5b8160015f3373ffffffffffffffffffffffffffffffffffffffff1673ffffffffffffffffffffffffffffffffffffffff1681526020019081526020015f205f82825461044e9190610873565b925050819055505050565b5f5f9054906101000a900473ffffffffffffffffffffffffffffffffffffffff1681565b5f5ffd5b5f73ffffffffffffffffffffffffffffffffffffffff82169050919050565b5f6104aa82610481565b9050919050565b6104ba816104a0565b81146104c4575f5ffd5b50565b5f813590506104d5816104b1565b92915050565b5f602082840312156104f0576104ef61047d565b5b5f6104fd848285016104c7565b91505092915050565b5f819050919050565b61051881610506565b82525050565b5f6020820190506105315f83018461050f565b92915050565b61054081610506565b811461054a575f5ffd5b50565b5f8135905061055b81610537565b92915050565b5f602082840312156105765761057561047d565b5b5f6105838482850161054d565b91505092915050565b5f819050919050565b5f6105af6105aa6105a584610481565b61058c565b610481565b9050919050565b5f6105c082610595565b9050919050565b5f6105d1826105b6565b9050919050565b6105e1816105c7565b82525050565b5f6020820190506105fa5f8301846105d8565b92915050565b5f82825260208201905092915050565b7f416d6f756e74206d757374206265203e203000000000000000000000000000005f82015250565b5f610644601283610600565b915061064f82610610565b602082019050919050565b5f6020820190508181035f83015261067181610638565b9050919050565b7f496e73756666696369656e742062616c616e63650000000000000000000000005f82015250565b5f6106ac601483610600565b91506106b782610678565b602082019050919050565b5f6020820190508181035f8301526106d9816106a0565b9050919050565b7f4e487b71000000000000000000000000000000000000000000000000000000005f52601160045260245ffd5b5f61071782610506565b915061072283610506565b925082820390508181111561073a576107396106e0565b5b92915050565b610749816104a0565b82525050565b5f6040820190506107625f830185610740565b61076f602083018461050f565b9392505050565b5f8115159050919050565b61078a81610776565b8114610794575f5ffd5b50565b5f815190506107a581610781565b92915050565b5f602082840312156107c0576107bf61047d565b5b5f6107cd84828501610797565b91505092915050565b7f5472616e73666572206661696c656400000000000000000000000000000000005f82015250565b5f61080a600f83610600565b9150610815826107d6565b602082019050919050565b5f6020820190508181035f830152610837816107fe565b9050919050565b5f6060820190506108515f830186610740565b61085e6020830185610740565b61086b604083018461050f565b949350505050565b5f61087d82610506565b915061088883610506565b92508282019050808211156108a05761089f6106e0565b5b9291505056fea26469706673582212200f1025ff36de74777ee05074631400829780c7b5aa3b5da43d2d7109133bd7fa64736f6c634300081d0033","linkReferences":{}},"methodIdentifiers":{"balances(address)":"27e235e3","deposit(uint256)":"b6b55f25","token()":"fc0c546a","withdraw(uint256)":"2e1a7d4d"},"id":17}